{
	"contract.sol": {
		"MyContract": {
			"abi": [
				{
					"constant": true,
					"inputs": [],
					"name": "getMyVar",
					"outputs": [
						{
							"name": "",
							"type": "uint256"
						}
					],
					"payable": false,
					"stateMutability": "view",
					"type": "function"
				},
				{
					"constant": false,
					"inputs": [
						{
							"name": "_myVar",
							"type": "uint256"
						}
					],
					"name": "setmyVar",
					"outputs": [],
					"payable": false,
					"stateMutability": "nonpayable",
					"type": "function"
				},
				{
					"constant": true,
					"inputs": [],
					"name": "myVar",
					"outputs": [
						{
							"name": "",
							"type": "uint256"
						}
					],
					"payable": false,
					"stateMutability": "view",
					"type": "function"
				}
			],
			"devdoc": {
				"methods": {}
			},
			"evm": {
				"assembly": "    /* \"contract.sol\":28:251  contract MyContract {\r... */\n  mstore(0x40, 0x80)\n  callvalue\n    /* \"--CODEGEN--\":8:17   */\n  dup1\n    /* \"--CODEGEN--\":5:7   */\n  iszero\n  tag_1\n  jumpi\n    /* \"--CODEGEN--\":30:31   */\n  0x0\n    /* \"--CODEGEN--\":27:28   */\n  dup1\n    /* \"--CODEGEN--\":20:32   */\n  revert\n    /* \"--CODEGEN--\":5:7   */\ntag_1:\n    /* \"contract.sol\":28:251  contract MyContract {\r... */\n  pop\n  dataSize(sub_0)\n  dup1\n  dataOffset(sub_0)\n  0x0\n  codecopy\n  0x0\n  return\nstop\n\nsub_0: assembly {\n        /* \"contract.sol\":28:251  contract MyContract {\r... */\n      mstore(0x40, 0x80)\n      jumpi(tag_1, lt(calldatasize, 0x4))\n      calldataload(0x0)\n      0x100000000000000000000000000000000000000000000000000000000\n      swap1\n      div\n      0xffffffff\n      and\n      dup1\n      0x480e2c36\n      eq\n      tag_2\n      jumpi\n      dup1\n      0x51aa051a\n      eq\n      tag_3\n      jumpi\n      dup1\n      0xc6b91540\n      eq\n      tag_4\n      jumpi\n    tag_1:\n      0x0\n      dup1\n      revert\n        /* \"contract.sol\":168:248  function getMyVar() view public returns(uint256) {\r... */\n    tag_2:\n      callvalue\n        /* \"--CODEGEN--\":8:17   */\n      dup1\n        /* \"--CODEGEN--\":5:7   */\n      iszero\n      tag_5\n      jumpi\n        /* \"--CODEGEN--\":30:31   */\n      0x0\n        /* \"--CODEGEN--\":27:28   */\n      dup1\n        /* \"--CODEGEN--\":20:32   */\n      revert\n        /* \"--CODEGEN--\":5:7   */\n    tag_5:\n        /* \"contract.sol\":168:248  function getMyVar() view public returns(uint256) {\r... */\n      pop\n      tag_6\n      jump(tag_7)\n    tag_6:\n      mload(0x40)\n      dup1\n      dup3\n      dup2\n      mstore\n      0x20\n      add\n      swap2\n      pop\n      pop\n      mload(0x40)\n      dup1\n      swap2\n      sub\n      swap1\n      return\n        /* \"contract.sol\":86:160  function setmyVar(uint256 _myVar) public {\r... */\n    tag_3:\n      callvalue\n        /* \"--CODEGEN--\":8:17   */\n      dup1\n        /* \"--CODEGEN--\":5:7   */\n      iszero\n      tag_8\n      jumpi\n        /* \"--CODEGEN--\":30:31   */\n      0x0\n        /* \"--CODEGEN--\":27:28   */\n      dup1\n        /* \"--CODEGEN--\":20:32   */\n      revert\n        /* \"--CODEGEN--\":5:7   */\n    tag_8:\n        /* \"contract.sol\":86:160  function setmyVar(uint256 _myVar) public {\r... */\n      pop\n      tag_9\n      0x4\n      dup1\n      calldatasize\n      sub\n      dup2\n      add\n      swap1\n      dup1\n      dup1\n      calldataload\n      swap1\n      0x20\n      add\n      swap1\n      swap3\n      swap2\n      swap1\n      pop\n      pop\n      pop\n      jump(tag_10)\n    tag_9:\n      stop\n        /* \"contract.sol\":57:77  uint256 public myVar */\n    tag_4:\n      callvalue\n        /* \"--CODEGEN--\":8:17   */\n      dup1\n        /* \"--CODEGEN--\":5:7   */\n      iszero\n      tag_11\n      jumpi\n        /* \"--CODEGEN--\":30:31   */\n      0x0\n        /* \"--CODEGEN--\":27:28   */\n      dup1\n        /* \"--CODEGEN--\":20:32   */\n      revert\n        /* \"--CODEGEN--\":5:7   */\n    tag_11:\n        /* \"contract.sol\":57:77  uint256 public myVar */\n      pop\n      tag_12\n      jump(tag_13)\n    tag_12:\n      mload(0x40)\n      dup1\n      dup3\n      dup2\n      mstore\n      0x20\n      add\n      swap2\n      pop\n      pop\n      mload(0x40)\n      dup1\n      swap2\n      sub\n      swap1\n      return\n        /* \"contract.sol\":168:248  function getMyVar() view public returns(uint256) {\r... */\n    tag_7:\n        /* \"contract.sol\":208:215  uint256 */\n      0x0\n        /* \"contract.sol\":235:240  myVar */\n      dup1\n      sload\n        /* \"contract.sol\":228:240  return myVar */\n      swap1\n      pop\n        /* \"contract.sol\":168:248  function getMyVar() view public returns(uint256) {\r... */\n      swap1\n      jump\t// out\n        /* \"contract.sol\":86:160  function setmyVar(uint256 _myVar) public {\r... */\n    tag_10:\n        /* \"contract.sol\":146:152  _myVar */\n      dup1\n        /* \"contract.sol\":138:143  myVar */\n      0x0\n        /* \"contract.sol\":138:152  myVar = _myVar */\n      dup2\n      swap1\n      sstore\n      pop\n        /* \"contract.sol\":86:160  function setmyVar(uint256 _myVar) public {\r... */\n      pop\n      jump\t// out\n        /* \"contract.sol\":57:77  uint256 public myVar */\n    tag_13:\n      sload(0x0)\n      dup2\n      jump\t// out\n\n    auxdata: 0xa165627a7a72305820997cc9e157c9f2e2509b63209deb0ccbf0756981a4e8ef37b64d21398be966590029\n}\n",
				"bytecode": {
					"linkReferences": {},
					"object": "608060405234801561001057600080fd5b50610117806100206000396000f3006080604052600436106053576000357c0100000000000000000000000000000000000000000000000000000000900463ffffffff168063480e2c3614605857806351aa051a146080578063c6b915401460aa575b600080fd5b348015606357600080fd5b50606a60d2565b6040518082815260200191505060405180910390f35b348015608b57600080fd5b5060a86004803603810190808035906020019092919050505060db565b005b34801560b557600080fd5b5060bc60e5565b6040518082815260200191505060405180910390f35b60008054905090565b8060008190555050565b600054815600a165627a7a72305820997cc9e157c9f2e2509b63209deb0ccbf0756981a4e8ef37b64d21398be966590029",
					"opcodes": "PUSH1 0x80 PUSH1 0x40 MSTORE CALLVALUE DUP1 ISZERO PUSH2 0x10 JUMPI PUSH1 0x0 DUP1 REVERT JUMPDEST POP PUSH2 0x117 DUP1 PUSH2 0x20 PUSH1 0x0 CODECOPY PUSH1 0x0 RETURN STOP PUSH1 0x80 PUSH1 0x40 MSTORE PUSH1 0x4 CALLDATASIZE LT PUSH1 0x53 JUMPI PUSH1 0x0 CALLDATALOAD PUSH29 0x100000000000000000000000000000000000000000000000000000000 SWAP1 DIV PUSH4 0xFFFFFFFF AND DUP1 PUSH4 0x480E2C36 EQ PUSH1 0x58 JUMPI DUP1 PUSH4 0x51AA051A EQ PUSH1 0x80 JUMPI DUP1 PUSH4 0xC6B91540 EQ PUSH1 0xAA JUMPI JUMPDEST PUSH1 0x0 DUP1 REVERT JUMPDEST CALLVALUE DUP1 ISZERO PUSH1 0x63 JUMPI PUSH1 0x0 DUP1 REVERT JUMPDEST POP PUSH1 0x6A PUSH1 0xD2 JUMP JUMPDEST PUSH1 0x40 MLOAD DUP1 DUP3 DUP2 MSTORE PUSH1 0x20 ADD SWAP2 POP POP PUSH1 0x40 MLOAD DUP1 SWAP2 SUB SWAP1 RETURN JUMPDEST CALLVALUE DUP1 ISZERO PUSH1 0x8B JUMPI PUSH1 0x0 DUP1 REVERT JUMPDEST POP PUSH1 0xA8 PUSH1 0x4 DUP1 CALLDATASIZE SUB DUP2 ADD SWAP1 DUP1 DUP1 CALLDATALOAD SWAP1 PUSH1 0x20 ADD SWAP1 SWAP3 SWAP2 SWAP1 POP POP POP PUSH1 0xDB JUMP JUMPDEST STOP JUMPDEST CALLVALUE DUP1 ISZERO PUSH1 0xB5 JUMPI PUSH1 0x0 DUP1 REVERT JUMPDEST POP PUSH1 0xBC PUSH1 0xE5 JUMP JUMPDEST PUSH1 0x40 MLOAD DUP1 DUP3 DUP2 MSTORE PUSH1 0x20 ADD SWAP2 POP POP PUSH1 0x40 MLOAD DUP1 SWAP2 SUB SWAP1 RETURN JUMPDEST PUSH1 0x0 DUP1 SLOAD SWAP1 POP SWAP1 JUMP JUMPDEST DUP1 PUSH1 0x0 DUP2 SWAP1 SSTORE POP POP JUMP JUMPDEST PUSH1 0x0 SLOAD DUP2 JUMP STOP LOG1 PUSH6 0x627A7A723058 KECCAK256 SWAP10 PUSH29 0xC9E157C9F2E2509B63209DEB0CCBF0756981A4E8EF37B64D21398BE966 MSIZE STOP 0x29 "
				},
				"gasEstimates": {
					"creation": {
						"codeDepositCost": "55800",
						"executionCost": "105",
						"totalCost": "55905"
					},
					"external": {
						"getMyVar()": "402",
						"myVar()": "438",
						"setmyVar(uint256)": "20227"
					}
				},
				"methodIdentifiers": {
					"getMyVar()": "480e2c36",
					"myVar()": "c6b91540",
					"setmyVar(uint256)": "51aa051a"
				}
			},
			"userdoc": {
				"methods": {}
			}
		}
	}
}