{
	"2_smth.sol": {
		"MyContract": {
			"abi": [
				{
					"constant": true,
					"inputs": [],
					"name": "getBalance",
					"outputs": [
						{
							"name": "",
							"type": "uint256"
						}
					],
					"payable": false,
					"stateMutability": "view",
					"type": "function"
				},
				{
					"constant": false,
					"inputs": [],
					"name": "withdrawEverything",
					"outputs": [],
					"payable": false,
					"stateMutability": "nonpayable",
					"type": "function"
				},
				{
					"payable": true,
					"stateMutability": "payable",
					"type": "fallback"
				}
			],
			"devdoc": {
				"methods": {}
			},
			"evm": {
				"assembly": "    /* \"2_smth.sol\":28:317  contract MyContract {\r... */\n  mstore(0x40, 0x80)\n  callvalue\n    /* \"--CODEGEN--\":8:17   */\n  dup1\n    /* \"--CODEGEN--\":5:7   */\n  iszero\n  tag_1\n  jumpi\n    /* \"--CODEGEN--\":30:31   */\n  0x0\n    /* \"--CODEGEN--\":27:28   */\n  dup1\n    /* \"--CODEGEN--\":20:32   */\n  revert\n    /* \"--CODEGEN--\":5:7   */\ntag_1:\n    /* \"2_smth.sol\":28:317  contract MyContract {\r... */\n  pop\n  dataSize(sub_0)\n  dup1\n  dataOffset(sub_0)\n  0x0\n  codecopy\n  0x0\n  return\nstop\n\nsub_0: assembly {\n        /* \"2_smth.sol\":28:317  contract MyContract {\r... */\n      mstore(0x40, 0x80)\n      jumpi(tag_1, lt(calldatasize, 0x4))\n      calldataload(0x0)\n      0x100000000000000000000000000000000000000000000000000000000\n      swap1\n      div\n      0xffffffff\n      and\n      dup1\n      0x12065fe0\n      eq\n      tag_2\n      jumpi\n      dup1\n      0xd1e191a4\n      eq\n      tag_3\n      jumpi\n    tag_1:\n      stop\n        /* \"2_smth.sol\":57:152  function getBalance() public view returns(uint) {\r... */\n    tag_2:\n      callvalue\n        /* \"--CODEGEN--\":8:17   */\n      dup1\n        /* \"--CODEGEN--\":5:7   */\n      iszero\n      tag_6\n      jumpi\n        /* \"--CODEGEN--\":30:31   */\n      0x0\n        /* \"--CODEGEN--\":27:28   */\n      dup1\n        /* \"--CODEGEN--\":20:32   */\n      revert\n        /* \"--CODEGEN--\":5:7   */\n    tag_6:\n        /* \"2_smth.sol\":57:152  function getBalance() public view returns(uint) {\r... */\n      pop\n      tag_7\n      jump(tag_8)\n    tag_7:\n      mload(0x40)\n      dup1\n      dup3\n      dup2\n      mstore\n      0x20\n      add\n      swap2\n      pop\n      pop\n      mload(0x40)\n      dup1\n      swap2\n      sub\n      swap1\n      return\n        /* \"2_smth.sol\":160:270  function withdrawEverything() public {\r... */\n    tag_3:\n      callvalue\n        /* \"--CODEGEN--\":8:17   */\n      dup1\n        /* \"--CODEGEN--\":5:7   */\n      iszero\n      tag_9\n      jumpi\n        /* \"--CODEGEN--\":30:31   */\n      0x0\n        /* \"--CODEGEN--\":27:28   */\n      dup1\n        /* \"--CODEGEN--\":20:32   */\n      revert\n        /* \"--CODEGEN--\":5:7   */\n    tag_9:\n        /* \"2_smth.sol\":160:270  function withdrawEverything() public {\r... */\n      pop\n      tag_10\n      jump(tag_11)\n    tag_10:\n      stop\n        /* \"2_smth.sol\":57:152  function getBalance() public view returns(uint) {\r... */\n    tag_8:\n        /* \"2_smth.sol\":99:103  uint */\n      0x0\n        /* \"2_smth.sol\":131:135  this */\n      address\n        /* \"2_smth.sol\":123:144  address(this).balance */\n      0xffffffffffffffffffffffffffffffffffffffff\n      and\n      balance\n        /* \"2_smth.sol\":116:144  return address(this).balance */\n      swap1\n      pop\n        /* \"2_smth.sol\":57:152  function getBalance() public view returns(uint) {\r... */\n      swap1\n      jump\t// out\n        /* \"2_smth.sol\":160:270  function withdrawEverything() public {\r... */\n    tag_11:\n        /* \"2_smth.sol\":208:250  0x419938B0CdeDA1358457Bcee328f96D04771dD9E */\n      0x419938b0cdeda1358457bcee328f96d04771dd9e\n        /* \"2_smth.sol\":208:259  0x419938B0CdeDA1358457Bcee328f96D04771dD9E.transfer */\n      0xffffffffffffffffffffffffffffffffffffffff\n      and\n        /* \"2_smth.sol\":208:262  0x419938B0CdeDA1358457Bcee328f96D04771dD9E.transfer(5) */\n      0x8fc\n        /* \"2_smth.sol\":260:261  5 */\n      0x5\n        /* \"2_smth.sol\":208:262  0x419938B0CdeDA1358457Bcee328f96D04771dD9E.transfer(5) */\n      swap1\n      dup2\n      iszero\n      mul\n      swap1\n      mload(0x40)\n      0x0\n      mload(0x40)\n      dup1\n      dup4\n      sub\n      dup2\n      dup6\n      dup9\n      dup9\n      call\n      swap4\n      pop\n      pop\n      pop\n      pop\n      iszero\n        /* \"--CODEGEN--\":8:17   */\n      dup1\n        /* \"--CODEGEN--\":5:7   */\n      iszero\n      tag_14\n      jumpi\n        /* \"--CODEGEN--\":45:61   */\n      returndatasize\n        /* \"--CODEGEN--\":42:43   */\n      0x0\n        /* \"--CODEGEN--\":39:40   */\n      dup1\n        /* \"--CODEGEN--\":24:62   */\n      returndatacopy\n        /* \"--CODEGEN--\":77:93   */\n      returndatasize\n        /* \"--CODEGEN--\":74:75   */\n      0x0\n        /* \"--CODEGEN--\":67:94   */\n      revert\n        /* \"--CODEGEN--\":5:7   */\n    tag_14:\n        /* \"2_smth.sol\":208:262  0x419938B0CdeDA1358457Bcee328f96D04771dD9E.transfer(5) */\n      pop\n        /* \"2_smth.sol\":160:270  function withdrawEverything() public {\r... */\n      jump\t// out\n\n    auxdata: 0xa165627a7a7230582067bb78c0ebe9d8903ee4381674359b7e7ea24309fb77ab9ab81a7858b197b0660029\n}\n",
				"bytecode": {
					"linkReferences": {},
					"object": "608060405234801561001057600080fd5b50610139806100206000396000f30060806040526004361061004c576000357c0100000000000000000000000000000000000000000000000000000000900463ffffffff16806312065fe01461004e578063d1e191a414610079575b005b34801561005a57600080fd5b50610063610090565b6040518082815260200191505060405180910390f35b34801561008557600080fd5b5061008e6100af565b005b60003073ffffffffffffffffffffffffffffffffffffffff1631905090565b73419938b0cdeda1358457bcee328f96d04771dd9e73ffffffffffffffffffffffffffffffffffffffff166108fc60059081150290604051600060405180830381858888f1935050505015801561010a573d6000803e3d6000fd5b505600a165627a7a7230582067bb78c0ebe9d8903ee4381674359b7e7ea24309fb77ab9ab81a7858b197b0660029",
					"opcodes": "PUSH1 0x80 PUSH1 0x40 MSTORE CALLVALUE DUP1 ISZERO PUSH2 0x10 JUMPI PUSH1 0x0 DUP1 REVERT JUMPDEST POP PUSH2 0x139 DUP1 PUSH2 0x20 PUSH1 0x0 CODECOPY PUSH1 0x0 RETURN STOP PUSH1 0x80 PUSH1 0x40 MSTORE PUSH1 0x4 CALLDATASIZE LT PUSH2 0x4C JUMPI PUSH1 0x0 CALLDATALOAD PUSH29 0x100000000000000000000000000000000000000000000000000000000 SWAP1 DIV PUSH4 0xFFFFFFFF AND DUP1 PUSH4 0x12065FE0 EQ PUSH2 0x4E JUMPI DUP1 PUSH4 0xD1E191A4 EQ PUSH2 0x79 JUMPI JUMPDEST STOP JUMPDEST CALLVALUE DUP1 ISZERO PUSH2 0x5A JUMPI PUSH1 0x0 DUP1 REVERT JUMPDEST POP PUSH2 0x63 PUSH2 0x90 JUMP JUMPDEST PUSH1 0x40 MLOAD DUP1 DUP3 DUP2 MSTORE PUSH1 0x20 ADD SWAP2 POP POP PUSH1 0x40 MLOAD DUP1 SWAP2 SUB SWAP1 RETURN JUMPDEST CALLVALUE DUP1 ISZERO PUSH2 0x85 JUMPI PUSH1 0x0 DUP1 REVERT JUMPDEST POP PUSH2 0x8E PUSH2 0xAF JUMP JUMPDEST STOP JUMPDEST PUSH1 0x0 ADDRESS PUSH20 0xFFFFFFFFFFFFFFFFFFFFFFFFFFFFFFFFFFFFFFFF AND BALANCE SWAP1 POP SWAP1 JUMP JUMPDEST PUSH20 0x419938B0CDEDA1358457BCEE328F96D04771DD9E PUSH20 0xFFFFFFFFFFFFFFFFFFFFFFFFFFFFFFFFFFFFFFFF AND PUSH2 0x8FC PUSH1 0x5 SWAP1 DUP2 ISZERO MUL SWAP1 PUSH1 0x40 MLOAD PUSH1 0x0 PUSH1 0x40 MLOAD DUP1 DUP4 SUB DUP2 DUP6 DUP9 DUP9 CALL SWAP4 POP POP POP POP ISZERO DUP1 ISZERO PUSH2 0x10A JUMPI RETURNDATASIZE PUSH1 0x0 DUP1 RETURNDATACOPY RETURNDATASIZE PUSH1 0x0 REVERT JUMPDEST POP JUMP STOP LOG1 PUSH6 0x627A7A723058 KECCAK256 PUSH8 0xBB78C0EBE9D8903E 0xe4 CODESIZE AND PUSH21 0x359B7E7EA24309FB77AB9AB81A7858B197B0660029 "
				},
				"gasEstimates": {
					"creation": {
						"codeDepositCost": "62600",
						"executionCost": "111",
						"totalCost": "62711"
					},
					"external": {
						"": "107",
						"getBalance()": "607",
						"withdrawEverything()": "infinite"
					}
				},
				"methodIdentifiers": {
					"getBalance()": "12065fe0",
					"withdrawEverything()": "d1e191a4"
				}
			},
			"userdoc": {
				"methods": {}
			}
		}
	}
}